S01B000051435A454B5F4C52535F436F6D70616E696F6E2E7372656338
S11300000C949C120C94C4120C94C4120C94C4123C
S11300100C94C4120C94C4120C94C4120C94C41204
S11300200C94C4120C94C4120C94C4120C94C412F4
S11300300C94C4120C94C4120C94C4120C94C412E4
S11300400C94E2230C94C4120C94CC1B0C94C41294
S11300500C94C4120C94C4120C94C4120C94C412C4
S11300600C94C4120C94C412311C311C421C561C36
S11300704D1C5F1C681C791C8F1CAF1CAF1C0040FE
S11300807A10F35A00A0724E18090010A5D4E800A3
S113009000E87648170000E40B54020000CA9A3BBB
S11300A0000000E1F5050000809698000000404241
S11300B00F000000A08601000000102700000000CF
S11300C0E803000000006400000000000A000000D3
S11300D000000100000000002C76D888DC674F087F
S11300E023DFC1DFAE59E1B1B796E5E3E453C63A85
S11300F0E651997696E8E6C28426EB898C9B62EDFC
S1130100407C6FFCEFBC9C9F40F2BAA56FA5F490B5
S1130110055A2AF75C936B6CF9676DC11BFCE0E42C
S11301200D47FEF520E6B500D0ED902E0300943582
S113013077050080841E080000204E0A000000C8D5
S11301400C333333330F986E12831141EF8D211426
S1130150893BE65516CFFEE6DB18D1844B381BF7F6
S11301607C1D901DA4BBE424203284725E22810095
S1130170C9F124ECA1E53D27FFE0FFD1AFFF32FF39
S1130180D0FFFEFFE0FFD1AEFFD0FFFEFFE0FFD1C6
S11301901000FFFEFFD0FFE0FFC1FFD1AED580A865
S11301A03FD300408D142000A1C8DA1281CFD9F1C9
S11301B0DB402EA4A6AFFFD0FFFE01060C00FE0715
S11301C00135026B20FFFE0AFE08FE0C00602217B8
S11301D06780808080800080173363A0A0A00256CF
S11301E06650F85050F8500159692070A8A0702842
S11301F0A87020025767C8C8102040989802576713
S113020040A0A040A89068271363808080113969BA
S11302102040408080804040201139698040402047
S1130220202040408002576720A8702070A8200337
S113023055652020F820200133636060C0055161BA
S1130240F8122262C0C00257670810102040408094
S11302501247676090909090906012376740C0405A
S1130260404040E0025767708808102040F8025769
S113027067F808103008887002576710305090F8FB
S11302801010025767F880F008088870025767302A
S11302904080F0888870025767F8081010202020EA
S11302A002576770888870888870025767708888DA
S11302B078081060122565C0C000C0C001366660B1
S11302C060006060C01335652040804020045363A3
S11302D0F800F81335658040204080025767708825
S11302E010202000200257677088B8A8B8807002D8
S11302F05767708888F8888888025767F04848707C
S11303004848F00257677088808080887002576779
S1130310F04848484848F0025767F88080F08080E9
S1130320F8025767F88080F08080800257677088F1
S11303308080988870025767888888F8888888122F
S11303403767E04040404040E002576738101010E3
S11303501090600257678890A0C0A09088025767E9
S1130360808080808080F802576788D8A888888831
S1130370880257678888C8A8988888025767708851
S11303808888888870025767F08888F080808002A7
S1130390576770888888A89068025767F08888F043
S11303A0A090880257677088807008887002576729
S11303B0F820202020202002576788888888888891
S11303C07002576788888888505020025767888849
S11303D08888A8A8500257678888502050888802C7
S11303E0576788885020202020025767F80810207B
S11303F04080F8113969E080808080808080E0024C
S1130400576780404020101008113969E0202020EF
S113041020202020E0075363205088005161F81702
S113042033638040200255657008788878025767E6
S11304308080F0888888F002556570888088700212
S11304405767080878888888780255657088F0802E
S113045070025767304840E040404000576770885A
S113046088887808700257678080F08888888812A6
S113047037674000C0404040E01049691000301028
S1130480101010906002576780808890E090881266
S11304903767C04040404040E0025565D0A8A8A856
S11304A0A8025565B0C88888880255657088888810
S11304B070005767F0888888F080800057677888D4
S11304C08888780808025565B0C880808002556520
S11304D078807008F00257672020F8202020180246
S11304E055658888889868025565888888502002F0
S11304F055658888A8A85002556588502050880002
S1130500576788888850204080025565F81020403D
S1130510F811396920404040804040402021196949
S11305208080808080808080801139698040404054
S1130530204040408004536348A890FFFFFFFFFF22
S1130540FFFFFFFFFFFFFFFFFFFFFFFFFFFFFFFFB7
S1130550FFFFFFFFFFFFFFFFFFFFFFFF0C00602215
S11305601767800080808080800157672070A8A072
S1130570A87020025767304840E04048B0025565F3
S1130580A8508850A80257678850F820F8202022E5
S11305901767808080008080801248687080609037
S11305A0906010E0193161A0026767788494A49484
S11305B0847816356560A06000E00255652850A077
S11305C05028035363F80808153161E0026767781F
S11305D084B4A4A48478095161F8174464609090A9
S11305E0600257672020F8202000F817356540A0E6
S11305F02040E0173565C0204020C01733632040F9
S11306008000576788888898E8808002586878E86E
S1130610E8E868282828252262C0C010326220C079
S113062017356540C04040E017356540A04000E004
S1130630025565A0502850A0025A6A40C04040505C
S11306403050781010025A6A40C0404050280810B8
S11306502038025A6AC0204020D03050781010024E
S1130660576720002020408870025A6A402000709A
S11306708888F8888888025A6A102000708888F868
S1130680888888025A6A205000708888F888888888
S1130690025A6A68B000708888F8888888025969A4
S11306A05000708888F8888888025A6A2050207020
S11306B08888F888888802576778A0A0F0A0A0B836
S11306C0005969708880808088701060025A6A407E
S11306D02000F88080F08080F8025A6A102000F828
S11306E08080F08080F8025A6A205000F88080F000
S11306F08080F80259695000F88080F08080F812F8
S11307003A6A804000E04040404040E0123A6A20AB
S11307104000E04040404040E0123A6A40A000E01F
S11307204040404040E0123969A000E04040404071
S113073040E0025767704848E8484870025A6A68BF
S1130740B0008888C8A8988888025A6A4020007037
S1130750888888888870025A6A102000708888887F
S1130760888870025A6A2050007088888888887047
S1130770025A6A68B000708888888888700259694B
S11307805000708888888888700355658850205088
S113079088015969087098A8A8A8C87080025A6A84
S11307A040200088888888888870025A6A1020004F
S11307B088888888888870025A6A205000888888C7
S11307C08888887002596950008888888888887069
S11307D0025A6A102000888850202020201247677F
S11307E080E0909090E080025767708890A0908895
S11307F0B002586840200070087888780258681061
S113080020007008788878025868205000700878B2
S1130810887802586868B00070087888780257674A
S11308205000700878887802586820502070087842
S11308308878025565702870A078005767708880A2
S1130840887010600258684020007088F080700240
S113085058681020007088F080700258682050009A
S11308607088F0807002576750007088F0807012B2
S11308703868804000C0404040E0123868204000A2
S1130880C0404040E012386840A000C0404040E012
S1130890123767A000C0404040E002596950205020
S11308A008788888887002586868B000B0C888885A
S11308B08802586840200070888888700258681040
S11308C020007088888870025868205000708888DA
S11308D0887002586868B00070888888700257670A
S11308E0500070888888700355652000F800200245
S11308F055657898A8C8F002586840200088888810
S113090088700258681020008888888870025868A7
S1130910205000888888887002576750008888882B
S11309208870005A6A10200088888850204080000F
S113093059698080F0888888F08080005969500067
S113094088888850204080000A1400FC0D024A0464
S11309509920FFFC10FC0DFC0000000A0010020DA1
S11309600D0A0400C0C0C0C0C0C0C0C0C0C000C028
S1130970C00604040A0209CCCCCC48090B160A01AF
S1130980011B001B001B007F80360036003600FF71
S1130990006C006C006C00080D0D0A0100187EDB71
S11309A0D8D8D87E1B1B1BDB7E18090C180A010043
S11309B07300DB00DE0076000C000C001800180049
S11309C037003D806D806700090D1A0A0100380068
S11309D06C006C006C00780030007000D800CD8092
S11309E0C700C600EF0079800205050A0408C0C0EC
S11309F0C0C080050D0D0A030018306060C0C0C07F
S1130A00C0C060603018050D0D0A0200C0603030AF
S1130A101818181818303060C00807070A01036650
S1130A20663CFF3C66660807070A0103181818FFAE
S1130A301818180403030A03FF7070E00801010A80
S1130A400106FF0303030A0400E0E0E0070C0C0ABC
S1130A50020006060C0C181830306060C0C0080D87
S1130A600D0A0100183C6666C3C3C3C3C366663C73
S1130A7018080D0D0A0100183878D8181818181815
S1130A80181818FF080D0D0A01003C66C3C30303C0
S1130A90061C3060C0C0FF080D0D0A01003C66C38F
S1130AA0C303061C0603C3C3663C080D0D0A0100FC
S1130AB002060E1E3666C6C6FF06060606080D0D9D
S1130AC00A0100FFC0C0C0C0DCE6030303C3663CE8
S1130AD0080D0D0A01003C66C2C0C0DCE6C3C3C3F6
S1130AE0C3663C080D0D0A0100FF030306060C0C47
S1130AF0181830306060080D0D0A01003C66C3C34D
S1130B00C3663C66C3C3C3663C080D0D0A01003CC2
S1130B1066C3C3C3C3673B030343663C0308080AB5
S1130B200400E0E000000000E0E00409090A03FF1B
S1130B307070000000007070E0070D0D0A010002E3
S1130B40060C183060C06030180C06020806060A4D
S1130B500103FF00000000FF070D0D0A020080C022
S1130B606030180C060C183060C080080D0D0A01A6
S1130B70003C66C3C3C3060C181818001818080DE7
S1130B800D0A01003C66C3CFDFDBDBDBDECCC063D8
S1130B903E080D0D0A0100183C6666C3C3C3FFC3BB
S1130BA0C3C3C3C3080D0D0A0100F8CCC6C6C6CC26
S1130BB0FCC6C3C3C3C6FC080D0D0A01003C66C3D2
S1130BC0C0C0C0C0C0C0C0C3663C080D0D0A01004F
S1130BD0FCC6C3C3C3C3C3C3C3C3C3C6FC080D0D90
S1130BE00A0100FFC0C0C0C0C0FCC0C0C0C0C0FF7C
S1130BF0080D0D0A0100FFC0C0C0C0C0FCC0C0C0C9
S1130C00C0C0C0080D0D0A01003C66C3C0C0C0CFFF
S1130C10C3C3C3C3673D080D0D0A0100C3C3C3C3E7
S1130C20C3C3FFC3C3C3C3C3C3080D0D0A0100FF7D
S1130C301818181818181818181818FF090D1A0A6F
S1130C4001001F80060006000600060006000600DC
S1130C5006000600C600C6006C003800080D0D0A28
S1130C600100C3C3C6C6CCCCF8CCCCC6C6C3C3082B
S1130C700D0D0A0100C0C0C0C0C0C0C0C0C0C0C00B
S1130C80C0FF080D0D0A0100C3C3E7E7FFDBDBDB90
S1130C90DBC3C3C3C3080D0D0A0100C3E3E3F3F3CD
S1130CA0DBDBCFCFC7C7C3C3080D0D0A01003C6609
S1130CB0C3C3C3C3C3C3C3C3C3663C080D0D0A0186
S1130CC000FCC6C3C3C3C3C6FCC0C0C0C0C0080EBA
S1130CD00E0A01FF3C66C3C3C3C3C3C3C3DBCF66F1
S1130CE03E03080D0D0A0100FCC6C3C3C3C3C6FC02
S1130CF0CCC6C6C3C3080D0D0A01003C66C3C0C000
S1130D00603C060303C3663C080D0D0A0100FF188E
S1130D101818181818181818181818080D0D0A019A
S1130D2000C3C3C3C3C3C3C3C3C3C3C3663C080DA7
S1130D300D0A0100C3C3C3C36666663C3C3C181875
S1130D4018080D0D0A0100C3C3C3C3C3DBDBDBDB1F
S1130D50E7E7C3C3080D0D0A0100C3C366663C3C44
S1130D60183C3C6666C3C3080D0D0A0100C3C36684
S1130D70663C3C18181818181818080D0D0A0100BC
S1130D80FF0303060C0C18303060C0C0FF060D0DC5
S1130D900A0200FCC0C0C0C0C0C0C0C0C0C0C0FC0B
S1130DA0070C0C0A0200C0C06060303018180C0C2C
S1130DB00606060D0D0A0200FC0C0C0C0C0C0C0CA7
S1130DC00C0C0C0CFC0804040A0109183C66C30949
S1130DD001020A01FFFF800403030A030AC0603012
S1130DE00808080A01003E63037FC3C3C37D080DDE
S1130DF00D0A0100C0C0C0C0C0DCE6C3C3C3C3E663
S1130E00DC0808080A01003E63C0C0C0C0633E0895
S1130E100D0D0A010003030303033B67C3C3C3C3EC
S1130E20673B0808080A01003C66C3FFC0C0633E74
S1130E30080D0D0A01001E33333030FC30303030E1
S1130E40303030080C0C0A01FC7DC7C6C6C67CC015
S1130E507EC3C3C37E080D0D0A0100C0C0C0C0C05C
S1130E60DCE6C3C3C3C3C3C3080B0B0A01001818D1
S1130E700078181818181818FF070F0F0A02FC0634
S1130E8006001E06060606060606C6C6C67C080D2D
S1130E900D0A0100C0C0C0C0C0C6CCD8F0F8CCC692
S1130EA0C3080D0D0A010078181818181818181816
S1130EB0181818FF0808080A0100B6FFDBDBDBDBA3
S1130EC0DBDB0808080A0100DCE6C3C3C3C3C3C3F1
S1130ED00808080A01003C66C3C3C3C3663C080C87
S1130EE00C0A01FCDCE6C3C3C3C3E6DCC0C0C0C05B
S1130EF0080C0C0A01FC3B67C3C3C3C3673B030371
S1130F0003030808080A0100DE7360606060606023
S1130F100808080A01007EC3C07E0303C37E080BD1
S1130F200B0A0100303030FC3030303030331E08D2
S1130F3008080A0100C3C3C3C3C3C3673B08080846
S1130F400A0100C3C366663C3C18180808080A0175
S1130F5000C3C3C3DBDBDBFF660808080A0100C368
S1130F60663C18183C66C3080C0C0A01FCC3C3C3D6
S1130F70C3C3C3673B03C3663C0708080A0200FEF9
S1130F80060C183060C0FE080D0D0A01000F181879
S1130F90181818F018181818180F020D0D0A040064
S1130FA0C0C0C0C0C0C0C0C0C0C0C0C0C0080D0D5B
S1130FB00A0100F018181818180F1818181818F043
S1130FC00803030A010A73DBCEFFFFFFFFFFFFFFE5
S1130FD0FFFFFFFFFFFFFFFFFFFFFFFFFFFFFFFF1D
S1130FE0FFFFFFFFFFFFFFFFFFFF0000000A0010ED
S1130FF0020D0D0A0400C0C000C0C0C0C0C0C0C003
S1131000C0C0C0070C0C0A010018183C66C2C0C05E
S1131010C2663C1818090C180A01001E003300337C
S11310200030003000FC00300030003000F800AD2B
S113103080E7000909120A00018080DD807F0063D7
S113104000630063007F00DD808080080B0B0A01D1
S11310500081C3663C7E187E18181818020D0D0A0C
S11310600400C0C0C0C0C0000000C0C0C0C0C008F0
S11310700D0D0A01003C66C66078CC66331E06631B
S1131080663C0602020A020BCCCC080B0B0A0100D8
S11310903C66C3BDA5A1A5BDC3663C0809090A01F8
S11310A0043E43037FC3C37D00FF090B160A0000FF
S11310B004800D801B0036006C00D8006C003600E4
S11310C01B000D8004800804040A0104FFFF0303CD
S11310D00601010A0206FC080B0B0A01003C66C368
S11310E0BDA5BDA9ADC3663C0801010A010DFF06FB
S11310F006060A02073078CCCC78300807070A01C4
S1131100021818FF181800FF0507070A020670D80E
S1131110183060C0F80507070A020670D81830189E
S1131120D8700403030A030A3060C0070A0A0A01DC
S1131130FDC6C6C6C6C6EEFAC0C0C0080D0D0A017B
S1131140007FFFFBFBFB7B1B1B1B1B1B1B1B0303EE
S1131150030A0405E0E0E00504040A02FC3018D8A0
S1131160700407070A020660E060606060F0070927
S1131170090A0104386CC6C6C66C3800FE090B1691
S11311800A01009000D8006C0036001B000D801B83
S11311900036006C00D8009000080C0C0A010140D5
S11311A0C04142E40812264A9E0202080C0C0A01BD
S11311B00140C04142E40816294182040F080C0C86
S11311C00A0101E0106112E40812264A9F02020893
S11311D00D0D0A01001818001818183060C3C3C395
S11311E0663C080F0F0A010060301800183C66C303
S11311F0C3C3FFC3C3C3C3080F0F0A0100060C18FF
S113120000183C66C3C3C3FFC3C3C3C3080F0F0A9C
S11312100100183C6600183C66C3C3C3FFC3C3C3C4
S1131220C3080F0F0A0100327E4C00183C66C3C38A
S1131230C3FFC3C3C3C3080F0F0A010066660018C7
S11312403C6666C3C3C3FFC3C3C3C30810100A010B
S1131250003C66663C00183C66C3C3C3FFC3C3C3FB
S1131260C3080D0D0A01001F3C6C6CCCCCFFCCCC28
S1131270CCCCCCCF0811110A01FC3C66C3C0C0C061
S1131280C0C0C0C0C3663C180C6C38080F0F0A01FC
S11312900060301800FFC0C0C0C0FCC0C0C0C0FFA8
S11312A0080F0F0A01000C183000FFC0C0C0C0FCBA
S11312B0C0C0C0C0FF080F0F0A0100183C6600FF41
S11312C0C0C0C0C0FCC0C0C0C0FF080F0F0A0100EE
S11312D066660000FFC0C0C0C0FCC0C0C0C0FF063E
S11312E00F0F0A020060301800FC3030303030300C
S11312F0303030FC060F0F0A020018306000FC305A
S11313003030303030303030FC060F0F0A020030FD
S113131078CC00FC303030303030303030FC060FC8
S11313200F0A0200CCCC00FC30303030303030308A
S11313303030FC090D1A0A00007E006300618061F0
S11313408061806180F980618061806180618063F7
S1131350007E00080F0F0A0100327E4C00C3E3F345
S1131360F3DBDBCFCFC7C3C3080F0F0A010030186C
S11313700C003C66C3C3C3C3C3C3C3663C080F0F9E
S11313800A01000C1830003C66C3C3C3C3C3C3C303
S1131390663C080F0F0A0100183C66003C66C3C394
S11313A0C3C3C3C3C3663C080F0F0A0100327E4C9B
S11313B0003C66C3C3C3C3C3C3C3663C080F0F0A60
S11313C001006666003C66C3C3C3C3C3C3C3C3662C
S11313D03C0708080A010082C66C38386CC68208CB
S11313E00F0F0A01FF013E66C7C7CBCBCBD3D3D3C4
S11313F0E3667C80080F0F0A010030180C00C3C399
S1131400C3C3C3C3C3C3C3663C080F0F0A01000CA4
S1131410183000C3C3C3C3C3C3C3C3C3663C080FEC
S11314200F0A0100183C6600C3C3C3C3C3C3C3C3CC
S1131430C3663C080F0F0A0100666600C3C3C3C33A
S1131440C3C3C3C3C3C3663C080F0F0A01000C180F
S11314503000C3C366663C3C1818181818070D0DF5
S11314600A0200C0C0C0FCC6C6C6C6C6FCC0C0C016
S1131470080D0D0A01001C36636366EC6C66636339
S113148063666C080C0C0A010030180C007EC30360
S11314907FC3C3C37D080C0C0A01000C1830007E06
S11314A0C3037FC3C3C37D080C0C0A0100183C6648
S11314B0007EC3037FC3C3C37D080C0C0A01003242
S11314C07E4C007EC3037FC3C3C37D080B0B0A019C
S11314D0006666007EC3037FC3C3C37D080D0D0A87
S11314E001003C66663C007EC3037FC3C3C37D0822
S11314F008080A0100769B1B1E78D8D96E080C0CCC
S11315000A01FC3E63C0C0C0C0633E180C6C3808BE
S11315100C0C0A0100603018003C66C3FFC0C063B5
S11315203E080C0C0A0100060C18003C66C3FFC000
S1131530C0633E080C0C0A0100183C66003C66C3FC
S1131540FFC0C0633E080B0B0A01006666003C66E0
S1131550C3FFC0C0633E080C0C0A010060301800D1
S113156078181818181818FF080C0C0A01000C1821
S1131570300078181818181818FF080C0C0A010005
S1131580183C660078181818181818FF080B0B0A6E
S1131590010066660078181818181818FF080D0D51
S11315A00A010088D87070D88C3E67C3C3C3663CF8
S11315B0080C0C0A0100327E4C00DCE6C3C3C3C332
S11315C0C3C3080C0C0A0100603018003C66C3C396
S11315D0C3C3663C080C0C0A0100060C18003C66E8
S11315E0C3C3C3C3663C080C0C0A0100183C660064
S11315F03C66C3C3C3C3663C080C0C0A0100327EBC
S11316004C003C66C3C3C3C3663C080B0B0A010011
S11316106666003C66C3C3C3C3663C080A0A0A0183
S11316200118180000FFFF00001818080A0A0A0130
S1131630FF013E66CBCBD3D3667C80080C0C0A0139
S11316400030180C00C3C3C3C3C3C3673B080C0CEE
S11316500A0100060C1800C3C3C3C3C3C3673B0815
S11316600C0C0A0100183C6600C3C3C3C3C3C367A0
S11316703B080B0B0A0100666600C3C3C3C3C3C3A4
S1131680673B0810100A01FC0C183000C3C3C3C325
S1131690C3C3673B03C3663C0711110A02FCC0C005
S11316A0C0C0C0C0F8CCC6C6C6CCF8C0C0C0C00854
S11316B00F0F0A01FC666600C3C3C3C3C3C3673B01
S11316C003C3663C01050600FF0500FA01F120FF93
S11316D00005FF050002002002152580808000809F
S11316E0053242A0A002354540E040E040023545C5
S11316F060C04060C0023545A0204080A00245552E
S1131700608070A0600512228080022535408080B0
S113171080400225358040404080043343A040A0EF
S113172003334340E0400122324080043141E0026F
S11317301121800235452020408080023545E0A0FB
S1131740A0A0E0022535C040404040023545E020DD
S1131750E080E0023545E020E020E0023545A0A02D
S1131760A0E020023545E080E020E002354580E03D
S1131770A0A0E0023545E020204080023545E0A0ED
S1131780E0A0E0023545E0A0A0E0200313238000A0
S1131790800214248000808002354520408040204F
S11317A0033343E000E002354580402040800235A9
S11317B045E0206000400255657088E8A860023565
S11317C045E0A0A0E0A0023545E0A0E0A0E002359D
S11317D045E0808080E0023545C0A0A0A0E002354D
S11317E045E080E080E0023545E080E0808002351D
S11317F045E080A0A0E0023545A0A0E0A0A002152D
S11318002580808080800235452020A0A0E002351C
S113181045A0A0C0A0A002354580808080E00235AC
S113182045A0E0A0A0A0023545E0A0A0A0A00235FC
S113183045E0A0A0A0E0023545E0A0A0E08001368C
S113184046E0A0A0A0E040023545E0A0A0C0A00270
S11318503545E080E020E0023545E040404040026C
S11318603545A0A0A0A0E0023545A0A0A0A0C002DC
S11318703545A0A0A0E0A0023545A0A040A0A0024C
S11318803545A0A0404040023545E0204080E002BC
S11318902535C0808080C0023545808040202002EC
S11318A02535C0404040C005324240A0023141E0ED
S11318B0052232804002354540A0A0E0A002354513
S11318C0C0A0C0A0C002354560808080600235455C
S11318D0C0A0A0A0C00235456080E080600235450C
S11318E06080E080800235456080A0A060023545BC
S11318F0A0A0E0A0A002152580808080800235454C
S11319002020A0A040023545A0A0C0A0A0023545DB
S11319108080808060023545A0E0A0A0A00235450B
S1131920C0A0A0A0A002354540A0A0A0400235451B
S1131930C0A0A0C08001364640A0A0A0404002350F
S113194045C0A0A0C0A002354560804020C002353B
S113195045E040404040023545A0A0A0A0400235EB
S113196045A0A0A0A0C0023545A0A0A0E0A00235DB
S113197045A0A040A0A0023545A0A04040400235AB
S113198045E0204080E00235456040C040600215DB
S1131990258080808080023545C0406040C006219B
S11319A031C0FFFFFFFFFFFFFFFFFFFFFFFFFFFF50
S11319B0FFFFFFFFFFFFFFFFFFFFFFFFFFFFFFFF33
S11319C0FFFFFFFF0225358040404040023545A01F
S11319D0A0A06020023545C020C020C0FFFFFF0248
S11319E0354580C0A0A040FFFF02354540A0A0605F
S11319F020FFFFFFFFFFFFFFFFFFFFFF023545E072
S1131A0020204080FFFFFF02354540A0A0A040FFFA
S1131A10FFFFFFFFFFFFFFFFFFFFFFFFFFFFFFFFD2
S1131A20FFFFFFFFFFFFFFFFFFFFFFFFFFFFFFFFC2
S1131A30FFFFFFFFFFFFFFFFFFFFFFFFFFFFFFFFB2
S1131A40FFFFFFFFFFFFFFFFFFFFFFFFFFFFFFFFA2
S1131A50FFFFFFFF28257553290025735600D09DED
S1131A60D090D09FD0A0D0AFD096D095D09DD09814
S1131A70D0950043555252454E543A257341005671
S1131A804F4C544147453A25735600525353493AF3
S1131A9025750053504545443A25756B6D2F6800F4
S1131AA0414C543A25756D005341543A2575284EDE
S1131AB06F292C4844473A2575005341543A2575FB
S1131AC0283344292C4844473A2575005341543A55
S1131AD02575283244292C4844473A2575004C4F33
S1131AE04E3A2573004C41543A2573004844473A12
S1131AF02575004C4F4E3A2573004C41543A2573DA
S1131B0000D09FD0BED181D0BBD0B5D0B4D0BDD091
S1131B10B8D0B520D0BAD0BED0BED180D0B4D0B861
S1131B20D0BDD0B0D182D18B00D09ED096D098D0E9
S1131B3094D090D09DD098D095204D41564C494E8C
S1131B404B0062792073616B6870696C6F74732EDB
S1131B50727500434F4D50414E494F4E0051435A08
S1131B60454B00343333204D487A202850504D29BA
S1131B7000D09FD0B8D182D0B0D0BDD0B8D0B53AC3
S1131B8025735600D0B7D0B0D0BFD183D181D0BA9D
S1131B90D0B020D0BFD0B5D180D0B5D0B4D0B0D1E2
S1131BA082D187D0B8D0BAD0B02E00D0BAD0BDD0B0
S1131BB0BED0BFD0BAD183203320D181D0B5D0BA22
S1131BC0D183D0BDD0B4D18B20D0B4D0BBD18F00C1
S1131BD0D09DD0B0D0B6D0BCD0B8D182D0B520D0B2
S1131BE0B820D183D0B4D0B5D180D0B6D0B8D0B2DB
S1131BF0D0B0D0B9D182D0B500212121D09FD0A0BE
S1131C00D09ED092D095D0A0D0AC20D090D09DD0F2
S1131C10A2D095D09DD09DD0A32121210000060CF7
S1131C2000FE070198032E20FFFE0AFE08FE0000B6
S1131C30000605FF010707060200808080808000FF
S1131C4080030303060105A0A0A005060606000004
S1131C5050F85050F8500509090600FF2070A8A05C
S1131C607028A87020050707060000C8C810204087
S1131C70989805070706000040A0A040A8906801B6
S1131C8003030602058080800309090601FF204042
S1131C90408080804040200309090601FF804040C5
S1131CA020202040408005070706000020A870205F
S1131CB070A8200505050600012020F82020030354
S1131CC0030600FF6060C0030101060103E0020295
S1131CD002060100C0C00507070600000810102016
S1131CE04040800407070601006090909090906047
S1131CF003070706010040C040404040E0050707D5
S1131D00060000708808102040F805070706000048
S1131D10F8081030088870050707060000103050D6
S1131D2090F81010050707060000F880F0080888EE
S1131D3070050707060000304080F08888700507AA
S1131D4007060000F80810102020200507070600E9
S1131D5000708888708888700507070600007088FE
S1131D608878081060020505060100C0C000C0C0E4
S1131D700306060600FF6060006060C003050506F8
S1131D8001012040804020050303060002F800F80A
S1131D900305050601018040204080050707060071
S1131DA000708810202000200507070600007088B6
S1131DB0B8A8B88070050707060000708888F888FE
S1131DC08888050707060000F04848704848F00571
S1131DD00707060000708880808088700507070662
S1131DE00000F04848484848F0050707060000F896
S1131DF08080F08080F8050707060000F88080F0F6
S1131E0080808005070706000070888080988870AD
S1131E10050707060000888888F88888880307076C
S1131E20060100E04040404040E00507070600008E
S1131E30381010101090600507070600008890A065
S1131E40C0A09088050707060000808080808080FD
S1131E50F805070706000088D8A888888888050739
S1131E60070600008888C8A8988888050707060020
S1131E700070888888888870050707060000F08845
S1131E8088F080808005070706000070888888A88D
S1131E909068050707060000F08888F0A090880580
S1131EA00707060000708880700888700507070619
S1131EB00000F820202020202005070706000088C5
S1131EC088888888887005070706000088888888BD
S1131ED050502005070706000088888888A8A85065
S1131EE005070706000088885020508888050707E2
S1131EF006000088885020202020050707060000DF
S1131F00F80810204080F80309090601FFE08080EA
S1131F108080808080E00507070600008040402024
S1131F201010080309090601FFE0202020202020CA
S1131F3020E0050303060005205088050101060082
S1131F40FEF803030306010580402005050506008D
S1131F500070087888780507070600008080F088FC
S1131F608888F005050506000070888088700507DC
S1131F7007060000080878888888780505050600A3
S1131F80007088F08070050707060000304840E0C4
S1131F904040400507070600FE708888887808706E
S1131FA00507070600008080F088888888030707F3
S1131FB00601004000C0404040E00409090601FE5B
S1131FC01000301010101090600507070600008004
S1131FD0808890E09088030707060100C0404040D5
S1131FE04040E0050505060000D0A8A8A8A80505FE
S1131FF005060000B0C8888888050505060000703D
S1132000888888700507070600FEF0888888F080B5
S1132010800507070600FE78888888780808050583
S113202005060000B0C8808080050505060000781C
S1132030807008F00507070600002020F820202003
S113204018050505060000888888986805050506B2
S1132050000088888850200505050600008888A8A7
S1132060A85005050506000088502050880507077C
S11320700600FE888888502040800505050600007B
S1132080F8102040F80309090601FF204040408071
S1132090404040200109090602FF80808080808042
S11320A08080800309090601FF80404040204040B1
S11320B0408005030306000248A890FF05070706B1
S11320C000FEF0888888F080800505050600007011
S11320D088808870050505060000F820202020056A
S11320E007070600FE8888888878087005090906AD
S11320F000FE202070A8A8A8702020050505060071
S11321000088502050880507070600FE90909090A4
S1132110F8080805050506000088887808080505FC
S113212005060000A8A8A8A8F80507070600FEA849
S1132130A8A8A8F80808050505060000C0407048CE
S1132140700505050600008888C8A8C804050506AA
S113215001008080E090E0040505060100E01070B5
S113216010E005050506000090A8E8A89004050500
S113217006010070907050900507070600007088F3
S113218088F8888888050707060000F08080F088B2
S113219088F0050707060000F08888F08888F005B5
S11321A00707060000F88080808080800508080604
S11321B000FF305050505050F888050707060000C3
S11321C0F88080F08080F8050707060000A8A87052
S11321D02070A8A805070706000070880870088802
S11321E070050707060000888898A8C88888050A2B
S11321F00A060000887000888898A8C8888805079F
S1132200070600008890A0C0A09088050707060074
S1132210003848484848488805070706000088D819
S1132220A888888888050707060000888888F888B1
S113223088880507070600007088888888887005E4
S11322400707060000F88888888888880507070635
S11322500000F08888F08080800507070600007081
S1132260888080808870050707060000F8202020F9
S113227020202005070706000088888888780870D1
S11322800507070600002070A8A8A8702005070706
S1132290060000888850205088880509090600FE39
S11322A0909090909090F808080507070600008821
S11322B0888878080808050707060000A8A8A8A8C1
S11322C0A8A8F80509090600FEA8A8A8A8A8A8F8BF
S11322D00808050707060000C0404070484870051C
S11322E00707060000888888C8A8A8C80407070646
S11322F00100808080E09090E005070706000070F0
S113230088087808887005070706000090A8A8E8E0
S1132310A8A89005070706000078888878284888C8
S1132320050505060000700878887805070706008B
S1132330007080F088888870050505060000F08824
S1132340F088F0050505060000F880808080050609
S1132350060600FF30505050F888050505060000B9
S11323607088F08070050505060000A8702070A82C
S1132370050505060000708830887005050506000F
S1132380008898A8C8880508080600008870008896
S113239098A8C88804050506010090A0C0A090056F
S11323A0050506000038484848880505050600006C
S11323B088D8A888880505050600008888F88888D4
S11323C00505050600007088888870050505060067
S11323D000F888888888FFFFFFFFFFFFFFFFFFFFEB
S11323E0FFFFFFFFFFFFFFFFFFFFFFFFFFFFFFFFF9
S11323F0FFFFFFFFFFFFFFFFFFFFFFFFFFFFFFFFE9
S1132400FFFFFFFFFFFFFFFFFFFFFFFFFFFFFFFFD8
S1132410FFFFFFFFFFFF00000000000000000000BE
S11324200000000000000000000E00000000001F7B
S113243000000000803F00000000807F00000000DA
S113244080FF0000000000FF0100000000FF030007
S1132450000000FE0F00000000FC1F00000000F858
S11324603F000F0000F87F800F0000F0FFE00F0036
S113247000E0FFF30F0000E0FFFF070000C0FFFFD4
S113248003000080FFFF03000000FFFF01000000C5
S1132490FFFF00000000FEFF00000000FCFF010041
S11324A00000FCFF01000000F8FF03000000F8FF3B
S11324B007000000FCFF0F000000FEFF1F000000EB
S11324C0FFFF3F0000003FFF3F0000801FFC7F0034
S11324D038C00FF8FF00F8E003E0FF01FCE101C0A1
S11324E0FF03F8F30080FF07F03F0000FE0FE01F3A
S11324F00000FC1FE01F0000F01FC03F0000E01FB1
S1132500807F0000C00F00FF0000000700FE0000F5
S1132510000000FC0100000000F00100000000E0E9
S11325200100000000400000000000000000000066
S1132530000000000000C12311241FBECFEFD8E02B
S1132540DEBFCDBF12E0A0E0B1E0E6E7F8E502C0EF
S113255005900D92A832B107D9F725E0A8E2B2E0C0
S113256001C01D92A838B207E1F712E1CCE9D2E12B
S113257004C02197FE010E94AA26CB39D107C9F7CE
S11325800E9497230C94392C0C940000F999FECFE7
S113259072BD61BD40BDFA9AF99A0895F999FECFCA
S11325A072BD61BDF89A80B50895DF92EF92FF92F3
S11325B00F931F93CF93DF9300D000D0CDB7DEB736
S11325C019821A821B821C828E010F5F1F4F7B01AE
S11325D0E01AF10A84E0D82ED00EB701600F711F03
S11325E08AE495E00E94CE12F80181938F01DE12F5
S11325F0F4CF69817A818B819C810F900F900F9029
S11326000F90DF91CF911F910F91FF90EF90DF908A
S113261008950F931F93CF93DF9300D0CDB7DEB708
S11326208B011A8219828AE495E00E94CE12898372
S1132630B8016F5F7F4F8AE495E00E94CE128A83CF
S113264089819A810F900F90DF91CF911F910F9103
S11326500895CF92DF92EF92FF920F931F93CF933F
S1132660DF936C018B01040F151FEB017901E61A4E
S1132670F70AB7016C0F7D1FC017D10729F04991E4
S1132680C6010E94C612F5CFDF91CF911F910F9121
S1132690FF90EF90DF90CF9008952F923F924F924A
S11326A05F926F927F928F929F92AF92BF92CF92DE
S11326B0DF92EF92FF920F931F93CF93DF9300D09B
S11326C0CDB7DEB74C01162F242E322F502E39836E
S11326D00E94CB133981882309F448C087E0830F13
S11326E0C82EC694C694C694D12C520C87E0482EAA
S11326F0410E832F869586958695682E712C98E0D9
S1132700899F100D1124342C330E37703A8325140D
S113271069F15701342D832D831B883078F0F5013E
S1132720049122E0422D632FC40139830E94AC1925
S1132730FFEFAF1ABF0A3981385FEDCFF701E60D1D
S1132740F71DAA80AA2071F0B490012FB0FE05C035
S1132750422D602FC4010E94A4190F5FAA94B6945D
S1132760A110F4CFEC0CFD1C2394D1CF0F900F904B
S1132770DF91CF911F910F91FF90EF90DF90CF9059
S1132780BF90AF909F908F907F906F905F904F908D
S11327903F902F9008950F93FC010150040F84A9DA
S11327A096A9941718F0081728F402C0081750F0D7
S11327B0041740F42150260F83A995A9961720F4F5
S11327C0281720F480E007C0281720F481E026179A
S11327D010F0F8CF81E00F910895DB011496ED918C
S11327E0FC91159720E030E061E00994DB01149638
S11327F0ED91FC91159720E030E063E00994DB0152
S11328001496ED91FC91159720E030E040E064E0EF
S11328100994DB011496ED91FC91159720E030E0CA
S113282041E064E00994DB011496ED91FC91159765
S113283020E030E062E00994DB011496ED91FC9114
S1132840159720E030E065E00994DB011496ED91E2
S1132850FC91159766E00994CF92DF92EF92FF9274
S11328600F931F93CF93DF938C017B016A0180E068
S1132870F601C49181110AC0CF3FE9F14C2FB70191
S1132880C8010E941C1481112FC03AC0CF3F11F41B
S11328904FEFF5CFCE3FB1F1C03F30F5C03E38F039
S11328A04C2F4F70B701C8010E9413141DC0C03DC6
S11328B038F04C2F4F70B701C8010E94F61314C0B2
S11328C0C03CA0F0B701C8010E94FF13C295C07FAD
S11328D0CE5FD0E0CE010E94A315B701C8010E94CB
S11328E00914CE010E94A31580E006C0C7FDFCCFE9
S11328F08C2F90E0F7CF81E0FFEFCF1ADF0AB8CF3B
S113290080E001C081E0DF91CF911F910F91FF9092
S1132910EF90DF90CF900895CF93DF93FC0123A530
S1132920222381F0EC0188E70E944415811102C042
S113293080E009C08EA1811180E40E947B15882368
S1132940B9F31BA681E0DF91CF9108950F931F93F4
S1132950CF93C42F89016330C1F050F4613081F00A
S1132960623009F048C0FC0146A321E023A743C01C
S1132970663011F1673079F1653009F03CC00EC062
S1132980FC0186A50E940E1536C0FC0116A221E0AA
S113299023A7411130C00E949C152DC00E948C14A5
S11329A0811104C00E949C1580E026C08C2F0E94D7
S11329B07B15811120C0F6CF0E948C14882391F3DB
S11329C0CC23C9F0F80181918F010E947B158823E3
S11329D049F3C150F5CF0E948C14882319F3CC23FA
S11329E051F0F80184910E947B15882329F00F5F30
S11329F01F4FC150F4CF81E0CF911F910F910895E3
S1132A0090912A02911104C080932A0260932802B3
S1132A10089510922A0210922802089580932902A0
S1132A201092B90084FF02C08CE001C088E4809356
S1132A30B8000C9409151F93CF93DF9300D0CDB742
S1132A40DEB720ED37E03A8329839091BC009823C8
S1132A5099F429813A81232B51F480912902182F6A
S1132A60127081FD09C081E00E94001506C0298111
S1132A703A8121503109E7CF11E0812F0F900F9057
S1132A80DF91CF911F910895CF93C82F84EA80934B
S1132A90BC0061E080E80E941B15882359F09091E6
S1132AA0B900987F983041F0903131F061E082E0D4
S1132AB00E940015C0E01CC0C093BB0084E8809352
S1132AC0BC0062E080E80E941B15882399F3809182
S1132AD02902C82FC27081FD0AC08091B900887F85
S1132AE0883129F062E082E00E94001501C0C1E053
S1132AF08C2FCF910895CF938093BB0084E880936B
S1132B00BC0063E080E80E941B15C82F882389F06D
S1132B1080912902C82FC27081FD0AC08091B9003A
S1132B20887F883229F063E082E00E94001501C0AA
S1132B30C1E08C2FCF91089584E98093BC0064E0B8
S1132B4080E10C941B1528EF30E0009729F0F9017F
S1132B503197F1F70197F9CF0895AF92BF92CF92D1
S1132B60DF92FF920F931F93CF93DF938C01EB01BE
S1132B70F42E690180E1481709F454C0841700F168
S1132B80EAE04E1721F1FFE04F1357C041E0C801BE
S1132B900E94F61340E0BE01C8010E94131441E8EC
S1132BA0BE01C8010E941C14F6014081BE01C80187
S1132BB00E941C1440E0BE01C8010E94F6133BC0F1
S1132BC081E1481791F1E5E14E1761F036C042E02A
S1132BD0C8010E94ED1344E951E0BE01C8010E94FE
S1132BE02C142BC0AA80BB804CE851E0C8010E9481
S1132BF02C14F5014481406BBE01C8010E941C14D1
S1132C0041E0BE01C8010E941314AE01B801C50120
S1132C100E94201A882301F140E0BE01C8010E94ED
S1132C20F6130BC043E851E002C048E751E0BE018F
S1132C30C8010E942C1481E00FC096014F2DBE01E3
S1132C40C801DF91CF911F910F91FF90DF90CF903A
S1132C50BF90AF900C948C1ADF91CF911F910F917C
S1132C60FF90DF90CF90BF90AF900895FC01E60FE6
S1132C70F11D849190E0982F88273196E4918E0F6E
S1132C80911D0895FC01849108950E9442168823A1
S1132C9021F0823011F083E0089586E0089580E009
S1132CA0089566E00C94361668E00C9436160A967D
S1132CB0FC01849108950B96FC0184910895BF92C0
S1132CC0CF92DF92EF92FF920F931F93CF93DF93F4
S1132CD08C01E62EDC011496CD91DC911597CE0182
S1132CE00E944216F82EF801848195810E944516AF
S1132CF0C82EF1E0FF1203C02FE0B22E02C0BB24A5
S1132D00BA94D80114968D919C9115970E945716E8
S1132D10F82EF801848195810E945B16D82ED80183
S1132D2014968D919C9115970E945416B0E6BE1589
S1132D3038F4009729F0C80FD91F91E6F92E10C076
S1132D40F801848195810E945116F0E4FE1538F44F
S1132D50009729F0C80FD91F81E4F82E01C06196AD
S1132D60DE1490F4D80150961C92509753961C92FE
S1132D70539754961C92549751961C92519752967D
S1132D801C9280E090E067C0DF1460F38C2D90E02B
S1132D90FE0124912F3F11F4219658C0FE104DC01E
S1132DA0D80114968D919C9115970E9442169E010C
S1132DB02F5F3F4FFE01882311F08230E1F48491AC
S1132DC0D80153968C935397F901249154962C93DC
S1132DD05497FE013396E4915096EC935097FE017C
S1132DE03496E4915196EC935197FE013596E49113
S1132DF05296EC9320C08491982F9F709250D801E2
S1132E0052969C93529782958F7051968C935197BA
S1132E10F9012491822F8F7054968C9354972295A4
S1132E202F7053962C935397FE013296E491E295BA
S1132E30EF705096EC93CE010EC0FE013296E491F1
S1132E40EB219C012E0F311DC20FD31FFD1409F479
S1132E5089CFF3949DCFDF91CF911F910F91FF9074
S1132E60EF90DF90CF90BF9008954F925F926F9252
S1132E707F929F92AF92BF92CF92DF92EF92FF9296
S1132E800F931F93CF93DF931F92CDB7DEB72C011F
S1132E90C62E942E622F0E945F167C01892B09F4A2
S1132EA03DC0F201848195810E944516B82EF2013D
S1132EB0138904898189C80E8289981AD92CD01A59
S1132EC0212F4D2D6C2DC2010E94CB13882319F1A3
S1132ED0EB0CF11C195F169516951695612E712C45
S1132EE0D914C9F03C2D57018A2D8E19811778F415
S1132EF0F501049120E04D2D632FC20139830E9416
S1132F00AC19FFEFAF1ABF0A3981385FEDCFE60C79
S1132F10F71CD394E5CFF201808901C080E00F90C3
S1132F20DF91CF911F910F91FF90EF90DF90CF90A1
S1132F30BF90AF909F907F906F905F904F90089557
S1132F40AF92BF92DF92EF92FF920F931F93CF93B2
S1132F50DF9300D0CDB7DEB77C01D62E042FDC0181
S1132F605596ED91FC91569729833A830995080F5C
S1132F702981A22E3A81B32E10E0F50121915F013F
S1132F80222341F0402F6D2DC7010E943517D80E22
S1132F90180FF3CF812F0F900F90DF91CF911F91D6
S1132FA00F91FF90EF90DF90BF90AF900895DF9264
S1132FB0EF92FF920F931F93CF93DF937C01D62F51
S1132FC0D42E8901DC015596ED91FC915697099513
S1132FD0D80EC0E0F8012491222351F04D2D6D2F1D
S1132FE0C7010E943517D80FC80F0F5F1F4FF2CFCC
S1132FF08C2FDF91CF911F910F91FF90EF90DF9075
S11330000895DC0114962D913C91159721153105F5
S113301009F43FC057968C915797F901811108C064
S11330203596E4915896EC935897F9013C9611C063
S1133030813041F43F96E4915896EC935897F90106
S1133040709607C03D96E4915896EC935897F90111
S11330503E96E4915996EC93599758968C915897CB
S1133060082E000C990B59962C915997821B9109A3
S113307027FD93955A962C915A97203441F0829FBC
S1133080C001112426E0969587952A95E1F75B9671
S11330908C9308952FE436E1FC01368B258B08953B
S11330A0CF93DF93FC01248135812617370749F03C
S11330B0EC01758364830E9401188FE496E19E8B72
S11330C08D8BDF91CF9108951F93CF93DF93EC0104
S11330D01D821C821F821E82198681E0888782E2FB
S11330E08A871F861E86FE01B396CE01C1962FEFF6
S11330F02193E817F907E1F711E018A3CE010E9424
S11331004A181F8B188E198E80E48A8F1B8E80E8D4
S11331109BE19AAB89ABDF91CF911F910895DB01BD
S1133120ED91FC910994EF92FF921F93CF93DF935B
S113313000D0CDB7DEB77C01DC01D196ED91FC91D6
S1133140D29782E069837A83099520E030E04AE0EF
S113315069817A81C7010E948F18182FD701D196EF
S1133160ED91FC91D29783E00995D701D196ED9129
S1133170FC91D29780E00995812F0F900F90DF91F9
S1133180CF911F91FF90EF9008950F931F93CF93CA
S1133190DF93EC018B01E9A9FAA982E00995E9A979
S11331A0FAA981E0099520E030E044E1B801CE01BC
S11331B00E948F189E012D5C3F4F47E1B801CE015C
S11331C00E948F18E9A9FAA980E0DF91CF911F919D
S11331D00F910994EF92FF921F93CF93DF93EC0129
S11331E07B01E9A9FAA982E00995E9A9FAA981E094
S11331F0099520E030E045E1B701CE010E948F1827
S1133200182F882341F09E012D5C3F4F47E1B70101
S1133210CE010E948F18E9A9FAA980E00995812FAF
S1133220DF91CF911F91FF90EF900895FC01448F9F
S1133230258F9C01245E3F4F42E30C948F18CF935B
S1133240DF931F92CDB7DEB79E012F5F3F4F46E459
S11332500E948F1889810F90DF91CF910895CF93A9
S1133260DF931F92CDB7DEB79E012F5F3F4F47E438
S11332700E948F1889810F90DF91CF91089520E0EB
S113328030E048E40C948F18CF93DF93EC016A810B
S11332907B810E941F1988836A817B81CE010E94F1
S11332A02F1989836A817B81CE010E943F198B8704
S11332B09E012D5C3F4F6A817B8147E1CE01DF9106
S11332C0CF910C948F18CF93DF93EC016A817B81AB
S11332D00E949318882321F0CE010E94441981E0B2
S11332E0DF91CF910895EF92FF920F931F93CF93A5
S11332F0DF931F92CDB7DEB77C018B0149830E9417
S11333006418F70113830283498146A7C7010F900C
S1133310DF91CF911F910F91FF90EF900C9463195F
S1133320FC01628173810C94C518CF93DF93EC0187
S1133330EE85FF85309709F009956A817B81CE017E
S1133340DF91CF910C94EA18362F242FFC0162816F
S11333507381432F0C9416190F93FC01828193817E
S1133360648F458F278F068F9F01245E3F4F4BE369
S1133370BC01CF010F910C948F18FC011282808143
S11333808150838314820895FC0180819281980F77
S113339092832181921760F494819F5F9483938137
S11333A0890F821710F08FEF820F838381E00895D5
S11333B080E00895DC011696ED91FC91179715961F
S11333C08C919F01280F311DC9011192E817F9074B
S11333D0E1F70895FC0191E08381861708F490E0F9
S11333E031E0461708F030E0832F892B21E0528129
S11333F0451708F420E02823832F8923822B08957E
S1133400DC01FB01108212968C9112978183159630
S11334108C9115978150828313968C9183830895A0
S1133420FB0141812381213029F0233031F468EFFD
S1133430640F04C0642F485F01C0642F0C94EA1920
S1133440FC01CB01BA012681378145810C942514F6
S1133450DC011696ED91FC91179712968C91481BFE
S1133460477081E090E001C0880F4A95EAF7E60FC3
S1133470F11D3081222311F0832B02C08095832318
S113348080830895FB014181DC0112962C911297EF
S1133490421768F013962C911397241740F060811B
S11334A015962C91621718F424810C94281A089507
S11334B0CF92DF92FF920F931F93CF93DF936C0110
S11334C0EB01FA809B81913051F030F0923049F059
S11334D0933051F41FEF09C010E001E007C011E080
S11334E004C010E00FEF02C010E000E0F7FE04C0DB
S11334F0BE01C6010E94421A9881900F9883998157
S1133500910F9983FF0C91F7DF91CF911F910F9148
S1133510FF90DF90CF9008950F931F93CF93DF9385
S11335208901FB01C281D3814233F9F068F445314A
S113353009F1473141F1443181F5CE010E94DA1994
S1133540CE010E94BD1929C0463411F1473411F14E
S11335504B3319F5B901CE010E94101A8823E9F002
S1133560B801CE010E94581A18C0B901CE010E94B8
S1133570421A13C0CE010E94C419882379F0CE01E7
S11335800E94DA190AC0B901CE010E94001A05C0CE
S11335908D8101C08981F801808381E0DF91CF9121
S11335A01F910F910895CF92DF92EF92FF920F93A4
S11335B01F93CF93DF937C01D62FD42EC22F122FCB
S11335C0C62EC20E6C2D611B183040F00FEF20E0A8
S11335D04D2DC7010E94AC191850F4CF6C2F687F91
S11335E06D0F2C2F277079F097E029272F5F277014
S11335F00FEF10E001C0000F2A95EAF720E04D2DEF
S1133600C7010E94AC19DF91CF911F910F91FF90D8
S1133610EF90DF90CF900895CF92DF92EF92FF92D8
S11336200F931F93CF93DF937C01D62ED42FC22FF9
S1133630122FC42EC20E4C2D411B183040F00FEF38
S113364021E06D2DC7010E94AC191850F4CF4C2F06
S1133650487F4D0F2C2F277079F097E029272F5F93
S113366027700FEF10E001C0000F2A95EAF721E060
S11336706D2DC7010E94AC19DF91CF911F910F915D
S1133680FF90EF90DF90CF900895DF92EF92FF923A
S11336900F931F93CF93DF937C01162FC42FD22E49
S11336A0D02F0E94CB13882319F12D2D4C2F612F7D
S11336B0C7010E94D31A2D2F4C2F612FC7010E94DE
S11336C00C1B6FEF6D0D610F2D2F4C2FC7010E9446
S11336D00C1B4FEF4D0F4C0F2D2D612FC701DF91A8
S11336E0CF911F910F91FF90EF90DF900C94D31A1C
S11336F0DF91CF911F910F91FF90EF90DF9008958C
S113370008951092C00080E18093C4001092C50017
S1133710E1ECF0E0808188698083E2ECF0E0808174
S11337208E6080830895633038F4FC01E60FF11D48
S1133730E60FF11D518340830895EF92FF920F939A
S11337401F93CF93DF931F92CDB7DEB77C018C011B
S11337500A5F1F4FD701ED91FD917D01309721F054
S1133760862F698309956981E016F10699F70F9010
S1133770DF91CF911F910F91FF90EF900895FB017E
S11337808191BF01882339F09091C00095FFFCCF4F
S11337908093C600F4CF08951F920F920FB60F9234
S11337A011242F933F934F935F936F937F938F9342
S11337B09F93AF93BF93EF93FF936091C6008BE405
S11337C095E00E949D1BFF91EF91BF91AF919F9156
S11337D08F917F916F915F914F913F912F910F90B6
S11337E00FBE0F901F901895FB012081822790E156
S11337F0899F900111242827822F90E0582F442775
S11338009C0163E0220F331F6A95E1F74227532797
S1133810218130E02427352774E0959587957A95A2
S1133820E1F7822793279183808308951F93CF9391
S1133830DF93CDB7DEB76F970FB6F894DEBF0FBE38
S1133840CDBF182F1092AB022091AE02822F90E0D0
S11338508B30910508F0A5C0FC01EC5CFF4F0C9483
S1133860AA261E3F09F09DC082E08093AE0210920A
S1133870B9021093B8028FEF9FEF9093B702809331
S1133880B6028FC01093B9021092AF0266EB72E0D9
S1133890812F0E94F41B84E029C01093BA0266EBC6
S11338A072E0812F0E94F41B83E020C01093BB02BE
S11338B066EB72E0812F0E94F41B85E017C0109321
S11338C0BC0266EB72E0812F0E94F41B86E00EC0FE
S11338D01093BD0266EB72E0812F0E94F41B80916D
S11338E0B902811102C088E001C087E08093AE0272
S11338F058C0E091AF0281E08E0F8093AF02F0E0F8
S1133900E254FD4F108366EB72E0812F0E94F41B9A
S11339109091AF028091B902981343C0E4CFE09133
S1133920BD02F0E0E85DFE4F66EB72E080810E942C
S1133930F41B212F30E08091B6029091B7029927B1
S11339402817390711F08AE001C089E08093AE029C
S1133950E091AF02F0E0E254FD4F108322C02A3020
S113396041F0212F30E08091B70290E02817390709
S113397011F082E001C081E08093AB0281E080938A
S1133980AE02E091AF02F0E0E154FD4F108380E11C
S113399091E0E6EBF2E0A1E3B4E001900D9201972F
S11339A0E1F74091AB02413099F48091BA028093DF
S11339B0B0028091B2029091B302009721F4109268
S11339C0B5021092B40201969093B3028093B202AE
S11339D08091B902809334048091AE0280932904CB
S11339E02091AF0220932A048091B0028F5F8093CC
S11339F02B048091B2029091B30290932E04809391
S1133A002D048091AD0290E09093300480932F04B4
S1133A101092AD02423031F530E0F901E154FD4F2E
S1133A20808190E0982F8827F901E254FD4F20818E
S1133A30822B909332048093310481E08093AD0211
S1133A401092AB021E3F59F44093AE021092B90299
S1133A508FEF9FEF9093B7028093B6023BC18093A0
S1133A60AE0238C1442309F435C181E495E00E94D3
S1133A70D9236093CA037093CB038093CC039093B0
S1133A80CD0381E08093030480913804813209F4EA
S1133A907FC050F48130E1F108F41CC1883109F48D
S1133AA0C0C08E3159F016C18C3408F013C18A3469
S1133AB008F010C1833209F49FC00CC14091340452
S1133AC04D3108F04CE1CE0101962CE1FC0111923C
S1133AD02A95E9F750E069E374E00E94F2268D81AB
S1133AE09E81AF81B8858093100490931104A093B4
S1133AF01204B093130489859A85AB85BC858093A1
S1133B000C0490930D04A0930E04B0930F04E2C030
S1133B1040913404403208F04FE1CE0101962FE188
S1133B20FC0111922A95E9F750E069E374E00E94E0
S1133B30F2266F85788980E090E00E943F2520E09E
S1133B4030E04AE754E40E949E2460930404709396
S1133B500504809306049093070469897A891616EC
S1133B6017060CF0B7C0072E000C880B990B0E94A7
S1133B70412520E030E048EC52E40E949E2460930A
S1133B8008047093090480930A0490930B04A2C060
S1133B90409134044D3108F04CE1CE0101962CE102
S1133BA0FC0111922A95E9F750E069E374E00E9460
S1133BB0F2268B8D9C8D019611F41C8E1B8E8B8DA1
S1133BC09C8D64E670E00E94632670931D046093EC
S1133BD01C0469897A898B899C8928EE33E040E04A
S1133BE050E00E948B2620931804309319044093CC
S1133BF01A0450931B046EC040913404473108F0FA
S1133C0046E1CE01019626E1FC0111922A95E9F7DD
S1133C1050E069E374E00E94F2268E8980931404D4
S1133C2059C0409134044F3108F04EE1CE01019661
S1133C302EE1FC0111922A95E9F750E069E374E062
S1133C400E94F226898D9A8D019611F41A8E198E8E
S1133C5069857A858B859C850E94412520E836E913
S1133C6048E15BE40E949E24609322047093230441
S1133C7080932404909325046D857E858F8598898F
S1133C800E94412520E836E948E15BE40E949E2435
S1133C9060931E0470931F04809320049093210466
S1133CA08D8D809315048E8D80931604898D9A8D45
S1133CB064E670E00E94632680E090E00E943F2565
S1133CC026E636E646E650E40E94F6250E941025D4
S1133CD0609317046F960FB6F894DEBF0FBECDBF86
S1133CE0DF91CF911F91089580E480937C0087E851
S1133CF080937A0008950E94741E529A539A259ACA
S1133D002D9A549881E495E00E94C5238BE495E0B4
S1133D100E94811B46E15CE160E08BE495E00E9437
S1133D20931B40E160E071E081E595E00E94731926
S1133D30789408951816190644F4EFE9FFE03197D2
S1133D40F1F700C000000197F5CF08955B9A0E9437
S1133D509A1E5B98089581E08093D20388EE93E0E5
S1133D600E94A61E2D985A9A089590917C00987FDF
S1133D70892B80937C0080917A00806480937A0000
S1133D8080917A0086FDFCCF809178009091790033
S1133D900895CF92DF92EF92FF92CF93DF93CAE020
S1133DA0D0E0C12CD12C760183E090E00E94B51EB6
S1133DB0BC0180E090E00E943F2521E73DE342E919
S1133DC050E40E94F62520E030E040E85AE30E94E7
S1133DD0F62527E039E640E95EE30E949E249B0134
S1133DE0AC01C701B6010E942D246B017C0121970F
S1133DF0D9F620E030E040E251E40E949E24DF91B5
S1133E00CF91FF90EF90DF90CF9008950E94C91E4C
S1133E1020E030E040E05FE30E942D2420E030E029
S1133E2040E650E40E949E240E941025862F0895A7
S1133E3020E030E0A9016091220470912304809174
S1133E402404909125040E94F12518166CF520E0B5
S1133E5030E0A90160911E0470911F048091200438
S1133E60909121040E94F1251816F4F420E030E02A
S1133E7044E050E062E274E08AE495E00E94291391
S1133E8024E030E044E050E06EE174E08AE495E040
S1133E900E94291328E030E042E050E06CE174E035
S1133EA08AE495E00C942913089560E070E08AE4B4
S1133EB095E00E94D51260932204709323048093AA
S1133EC024049093250464E070E08AE495E00E9461
S1133ED0D51260931E0470931F0480932004909362
S1133EE0210468E070E08AE495E00E94091390934D
S1133EF01D0480931C040895EF92FF920F931F9367
S1133F00CF93DF9381E595E00E94901981E7E82E35
S1133F108BE1F82EC3EED3E06DE17CE181E595E021
S1133F200E94501829EF3BE14CE060E081E595E008
S1133F300E94D71720ED3BE14CE160E081E595E07C
S1133F400E94D7172BEA3BE144E260E081E595E06B
S1133F500E94D71724E83BE14CE260E081E595E05C
S1133F600E94D7170E94C91E03ED13E021E043E02D
S1133F700E94D226C8019F930F93FF92EF92DF9382
S1133F80CF930E94FB2623EE33E04CE360E081E50F
S1133F9095E00E94A01781E595E00E9495190F9085
S1133FA00F900F900F900F900F908111B5CF4C9BF5
S1133FB026C081E495E00E94D9236093CE037093D8
S1133FC0CF038093D0039093D10381E495E00E94C2
S1133FD0D9230091CE031091CF032091D0033091C7
S1133FE0D103DC01CB01801B910BA20BB30B883BEB
S1133FF09B40A105B10560F44C99E7CF09C010922C
S1134000CE031092CF031092D0031092D1030AC0B2
S11340104C9B08C0DF91CF911F910F91FF90EF90BF
S11340200C94AB1EDF91CF911F910F91FF90EF90F5
S11340300895EF92FF920F936EE071E08BE495E0A8
S11340400E94BF1B81E595E00E9490196AEB71E024
S113405081E595E00E94501823E63BE148E062E2E6
S113406081E595E00E94D71767E479E081E595E062
S11340700E9450182DE53BE140E268E481E595E0BB
S11340800E94D7176AEB71E081E595E00E94501811
S113409023E53BE14CE268E481E595E00E94D71713
S11340A064EC76E181E595E00E94501822E43BE15E
S11340B040E466E481E595E00E94D71786E1E82EA6
S11340C084E2F82E00E320E340E160E181E595E03D
S11340D00E944D1381E595E00E9495198111B6CF98
S11340E080ED97E00F91FF90EF900C949A1EEF9261
S11340F0FF920F931F93CF93DF930E94551F6DE19F
S11341007CE181E595E00E945018809103048111BF
S113411008C029E23BE14AE060E181E595E00E94C4
S1134120D71721E03BE148E164E081E595E00E9496
S1134130D7176091220470912304809124049091F4
S1134140250403ED13E027E04AE00E94D22678011B
S1134150FF920F938AEF9AE19F938F93C3EED3E07C
S1134160DF93CF930E94FB269E0148E264E081E541
S113417095E00E94A01760911E0470911F04809125
S113418020049091210427E04AE00E94D226FF9265
S11341900F9383EF9AE19F938F93DF93CF930E94C2
S11341A0FB269E0142E364E081E595E00E94A017AE
S11341B080911D048F9380911C048F938CEE9AE15F
S11341C09F938F93DF93CF930E94FB269E014CE332
S11341D064E081E595E00E94A01704E22FE74CE13A
S11341E060E081E595E00E94451B8DB79EB742963D
S11341F00FB6F8949EBF0FBE8DBFDF91CF911F9174
S11342000F91FF90EF9008958F929F92AF92BF927B
S1134210EF92FF920F931F93CF93DF936AEB71E0BA
S113422081E595E00E945018609122047091230466
S1134230809124049091250403ED13E027E04AE0E3
S11342400E94D2267801FF920F9385EE9AE19F9304
S11342508F93C3EED3E0DF93CF930E94FB269E019E
S113426048E060E081E595E00E94A01760911E049B
S113427070911F04809120049091210427E04AE06A
S11342800E94D226FF920F938EED9AE19F938F9313
S1134290DF93CF930E94FB269E0140E160E081E51D
S11342A095E00E94A017309115048DB79EB70C9627
S11342B00FB6F8949EBF0FBE8DBF20911D04909140
S11342C01C04809116043230A9F42F939F931F92FB
S11342D08F938CEC9AE19F938F93DF93CF930E94FB
S11342E0FB268DB79EB708960FB6F8949EBF0FBEF7
S11342F08DBF2BC03330A8F02F939F931F928F93C1
S11343008AEB9AE19F938F93DF93CF930E94FB26CE
S11343108DB79EB708960FB6F8949EBF0FBE8DBF9B
S113432014C02F939F931F928F9388EA9AE19F93CF
S11343308F93DF93CF930E94FB268DB79EB7089689
S11343400FB6F8949EBF0FBE8DBF23EE33E048E155
S113435060E081E595E00E94A01780911B048F9393
S113436080911A048F93809119048F93809118047B
S11343708F9380EA9AE19F938F93C3EED3E0DF9308
S1134380CF930E94FB269E0140E260E081E595E028
S11343900E94A017809117041F928F9383E99AE1DA
S11343A09F938F93DF93CF930E94FB269E0148E255
S11343B060E081E595E00E94A0178091140424E652
S11343C0829FC00111246FEF70E00E9477267F93D3
S11343D06F938BE89AE19F938F93DF93CF930E941F
S11343E0FB269E0140E360E081E595E00E94A01772
S11343F0609104047091050480910604909107046F
S113440003ED13E022E044E00E94D2267801FF92FB
S11344100F938FE79AE19F938F93DF93CF930E943B
S1134420FB269E0148E360E081E595E00E94A01729
S11344308090080490900904A0900A04B0900B04A2
S11344408DB79EB74A960FB6F8949EBF0FBE8DBF28
S113445020E030E040E251E4C501B4010E94F125BE
S11344608095482F441F4427441F4C5F22E0C50118
S1134470B4010E94D226FF920F9383E79AE19F939F
S11344808F93DF93CF930E94FB260F900F900F9092
S11344900F900F900F909E0140E460E081E595E05D
S11344A0DF91CF911F910F91FF90EF90BF90AF904C
S11344B09F908F900C94A0178F929F92AF92BF926F
S11344C0CF92DF92EF92FF920F931F93CF93DF93DC
S11344D00E94C91E4B015C0181E595E00E94901980
S11344E08AE5C82E8AE1D82EC3EED3E094E5E92EFE
S11344F09AE1F92E6DE17CE181E595E00E94501886
S11345002EE53AE14EE062E281E595E00E94D7179C
S113451003ED13E021E043E0C501B4010E94D2267B
S1134520C8019F930F93DF92CF92DF93CF930E94A2
S1134530FB2667E479E081E595E00E94501823EEBC
S113454033E042E266E281E595E00E94A0170E9412
S1134550061F1F928F93FF92EF92DF93CF930E94D7
S1134560FB2623EE33E048E36AE281E595E00E940E
S1134570A01781E595E00E9495192DB73EB7245FF9
S11345803F4F0FB6F8943EBF0FBE2DBF8111B2CF7F
S11345903FEF8DE399E4315080409040E1F700C053
S11345A00000DF91CF911F910F91FF90EF90DF906A
S11345B0CF90BF90AF909F908F900895CF92DF924D
S11345C0EF92FF920F931F930E94C91E6B017C010F
S11345D00E94061F682F70E080E090E00E94412551
S11345E09B01AC01C701B6010E949E2420E030E08B
S11345F040E650E40E94992487FF2FC081E495E0AF
S11346000E94D9230091C6031091C7032091C803C7
S11346103091C903DC01CB01801B910BA20BB30BBE
S113462089389341A105B105C0F081E495E00E9469
S1134630D9236093C6037093C7038093C8039093F0
S1134640C90386E990E00E94A61E1F910F91FF9076
S1134650EF90DF90CF900C945C221F910F91FF900C
S1134660EF90DF90CF9008950F931F9381E495E02E
S11346700E94D9230091CA031091CB032091CC034B
S11346803091CD03DC01CB01801B910BA20BB30B4A
S11346908D3D9540A105B10550F080910304813012
S11346A031F4109203041F910F910C94181F1F9161
S11346B00F9108950F931F934C9B26C081E495E0BE
S11346C00E94D9236093CE037093CF038093D003C9
S11346D09093D10381E495E00E94D9230091CE0305
S11346E01091CF032091D0033091D103DC01CB0191
S11346F0801B910BA20BB30B883C9105A105B1055E
S113470070F44C99E7CF0BC01092CE031092CF03F4
S11347101092D0031092D1031F910F91089586E94E
S113472090E00E94A61E1F910F910C945C220E949F
S11347307B1E4C9B03C00E94AB1E02C00E9419202A
S11347400E94DE228091D2038823C1F00E94342388
S11347500E945A2381E595E00E94901980910304F8
S1134760811103C00E94772002C00E94042181E5C8
S113477095E00E9495198111F1CFE2CF0E947C1F30
S1134780DFCF81E495E00C94CE23EEE6F0E0808167
S11347908160808385B5836085BD0895FC011082A6
S11347A01182128213821482158216821782108655
S11347B008952FB7F894FC016481758186819781EF
S11347C02FBF08951F920F920FB60F9211242F93AB
S11347D03F938F939F93AF93BF938091450590919F
S11347E04605A0914705B09148053091490523E05D
S11347F0230F2D3720F40196A11DB11D05C026E815
S1134800230F0296A11DB11D2093490580934505F0
S113481090934605A0934705B093480580914105C0
S113482090914205A0914305B09144050196A11DC4
S1134830B11D8093410590934205A0934305B09325
S11348404405BF91AF919F918F913F912F910F900C
S11348500FBE0F901F9018955058BB27AA270E948F
S113486044240C94B7250E94A92538F00E94B02551
S113487020F039F49F3F19F426F40C94A6250EF485
S1134880E095E7FB0C94A025E92F0E94C82558F376
S1134890BA17620773078407950720F079F4A6F521
S11348A00C94EA250EF4E0950B2EBA2FA02D0B01E3
S11348B0B90190010C01CA01A0011124FF27591B61
S11348C099F0593F50F4503E68F11A16F040A22F67
S11348D0232F342F4427585FF3CF469537952795D8
S11348E0A795F0405395C9F77EF41F16BA0B620BD7
S11348F0730B840BBAF09150A1F0FF0FBB1F661F1E
S1134900771F881FC2F70EC0BA0F621F731F841F60
S113491048F4879577956795B795F7959E3F08F086
S1134920B0CF9395880F08F09927EE0F9795879548
S113493008950E947C2508F481E008950E94B22421
S11349400C94B7250E94B02558F00E94A92540F088
S113495029F45F3F29F00C94A02551110C94EB2508
S11349600C94A6250E94C82568F39923B1F3552316
S113497091F3951B550BBB27AA276217730784076E
S113498038F09F5F5F4F220F331F441FAA1FA9F304
S113499035D00E2E3AF0E0E832D091505040E695F2
S11349A0001CCAF72BD0FE2F29D0660F771F881F53
S11349B0BB1F261737074807AB07B0E809F0BB0B46
S11349C0802DBF01FF2793585F4F3AF09E3F51055A
S11349D078F00C94A0250C94EB255F3FE4F3983E0B
S11349E0D4F3869577956795B795F7959F5FC9F743
S11349F0880F911D9695879597F90895E1E0660FC4
S1134A00771F881FBB1F621773078407BA0720F03C
S1134A10621B730B840BBA0BEE1F88F7E0950895A5
S1134A200E94D02588F09F5798F0B92F9927B75145
S1134A30B0F0E1F0660F771F881F991F1AF0BA953E
S1134A40C9F714C0B13091F00E94EA25B1E008958D
S1134A500C94EA25672F782F8827B85F39F0B93F7F
S1134A60CCF3869577956795B395D9F73EF49095F1
S1134A708095709561957F4F8F4F9F4F0895E8946F
S1134A8009C097FB3EF490958095709561957F4F92
S1134A908F4F9F4F9923A9F0F92F96E9BB27939540
S1134AA0F695879577956795B795F111F8CFFAF450
S1134AB0BB0F11F460FF1BC06F5F7F4F8F4F9F4F81
S1134AC016C0882311F096E911C0772321F09EE8DF
S1134AD0872F762F05C0662371F096E8862F70E045
S1134AE060E02AF09A95660F771F881FDAF7880F1F
S1134AF09695879597F90895990F0008550FAA0B75
S1134B00E0E8FEEF16161706E807F907C0F01216DC
S1134B101306E407F50798F0621B730B840B950BDF
S1134B2039F40A2661F0232B242B252B21F4089534
S1134B300A2609F4A140A6958FEF811D811D0895D1
S1134B4097F99F6780E870E060E008959FEF80EC3C
S1134B50089500240A9416161706180609060895DF
S1134B6000240A9412161306140605060895092E45
S1134B700394000C11F4882352F0BB0F40F4BF2BB4
S1134B8011F460FF04C06F5F7F4F8F4F9F4F0895F4
S1134B9057FD9058440F551F59F05F3F71F04795EA
S1134BA0880F97FB991F61F09F3F79F087950895CF
S1134BB0121613061406551FF2CF4695F1DF08C0EE
S1134BC0161617061806991FF1CF8695710561050B
S1134BD008940895E894BB2766277727CB0197F9B3
S1134BE008950E947C2508F48FEF08950E940926F9
S1134BF00C94B7250E94A92538F00E94B02520F016
S1134C00952311F00C94A0250C94A62511240C9442
S1134C10EB250E94C82570F3959FC1F3950F50E0D2
S1134C20551F629FF001729FBB27F00DB11D639F5A
S1134C30AA27F00DB11DAA1F649F6627B00DA11D00
S1134C40661F829F2227B00DA11D621F739FB00DA6
S1134C50A11D621F839FA00D611D221F749F332716
S1134C60A00D611D231F849F600D211D822F762FAF
S1134C706A2F11249F5750409AF0F1F088234AF08C
S1134C80EE0FFF1FBB1F661F771F881F91505040F8
S1134C90A9F79E3F510580F00C94A0250C94EB25B8
S1134CA05F3FE4F3983ED4F3869577956795B7957F
S1134CB0F795E7959F5FC1F7FE2B880F911D969599
S1134CC0879597F90895AA1BBB1B51E107C0AA1F3A
S1134CD0BB1FA617B70710F0A61BB70B881F991F99
S1134CE05A95A9F780959095BC01CD01089597FB3D
S1134CF0072E16F4009407D077FD09D00E9463268E
S1134D0007FC05D03EF4909581959F4F08957095CA
S1134D1061957F4F0895052E97FB1EF400940E9421
S1134D20A22657FD07D00E94B02607FC03D04EF4FC
S1134D300C94A22650954095309521953F4F4F4FA6
S1134D405F4F089590958095709561957F4F8F4F33
S1134D509F4F0895EE0FFF1F0590F491E02D0994E5
S1134D60A1E21A2EAA1BBB1BFD010DC0AA1FBB1F6B
S1134D70EE1FFF1FA217B307E407F50720F0A21BDD
S1134D80B30BE40BF50B661F771F881F991F1A944A
S1134D9069F760957095809590959B01AC01BD0174
S1134DA0CF010895EF920F931F93CF93DF93E80100
S1134DB047FD02C034E001C034E1E42F440FFF0B8F
S1134DC0F7FF03C0F195E195F109E32E022F2E2F91
S1134DD0AE010E94F028CE01DF91CF911F910F9177
S1134DE0EF900895FB01DC0102C001900D92415047
S1134DF05040D8F70895AEE0B0E0E1E0F7E20C945B
S1134E00102C0D891E898EE08C831A8309838FEF01
S1134E109FE79E838D83AE01475E5F4F6F89788DD8
S1134E20CE0101960E941E272F813885F801E20FDA
S1134E30F31F10822E96E4E00C942C2CACE0B0E02E
S1134E40E4E2F7E20C94022C7C016B018A01FC0180
S1134E5017821682838181FFBDC1CE0101964C0168
S1134E60F7019381F60193FD859193FF81916F0181
S1134E70882309F4ABC1853239F493FD859193FFFE
S1134E8081916F01853229F4B70190E00E946C2B67
S1134E90E7CF512C312C20E02032A0F48B3269F082
S1134EA030F4803259F0833269F420612CC08D32A1
S1134EB039F0803339F4216026C02260246023C095
S1134EC0286021C027FD27C030ED380F3A3078F430
S1134ED026FF06C0FAE05F9E300D1124532E13C046
S1134EE08AE0389E300D1124332E20620CC08E329D
S1134EF021F426FD6BC1206406C08C3611F42068B1
S1134F0002C0883641F4F60193FD859193FF8191A7
S1134F106F018111C1CF982F9F7D9554933028F450
S1134F200C5F1F4FFFE3F9830DC0833631F08337E5
S1134F3071F0833509F05BC022C0F8018081898358
S1134F400E5F1F4F44244394512C540115C0380163
S1134F50F2E06F0E711CF801A080B18026FF03C03F
S1134F60652D70E002C06FEF7FEFC5012C870E94B2
S1134F70612B2C0183012C852F77222E17C0380139
S1134F80F2E06F0E711CF801A080B18026FF03C00F
S1134F90652D70E002C06FEF7FEFC5012C870E9482
S1134FA0562B2C012C852068222E830123FC1BC048
S1134FB0832D90E048165906B0F4B70180E290E0E2
S1134FC00E946C2B3A94F4CFF50127FC859127FEBF
S1134FD081915F01B70190E00E946C2B31103A94EB
S1134FE0F1E04F1A51084114510471F7E5C08436B9
S1134FF011F0893639F5F80127FF07C06081718106
S1135000828193810C5F1F4F08C060817181072EDC
S1135010000C880B990B0E5F1F4F2F76722E97FF93
S113502009C090958095709561957F4F8F4F9F4FE4
S11350302068722E2AE030E0A4010E94A42BA82E3E
S1135040A81844C0853729F42F7EB22E2AE030E018
S113505025C0F22FF97FBF2E8F36C1F018F48835A2
S113506079F0B4C0803719F0883721F0AFC02F2F02
S11350702061B22EB4FE0DC08B2D8460B82E09C001
S113508024FF0AC09F2F9660B92E06C028E030E0A6
S113509005C020E130E002C020E132E0F801B7FEB3
S11350A007C060817181828193810C5F1F4F06C0AC
S11350B06081718180E090E00E5F1F4FA4010E9427
S11350C0A42BA82EA818FB2DFF777F2E76FE0BC0ED
S11350D0372D3E7FA51450F474FE0AC072FC08C03C
S11350E0372D3E7E05C0BA2C372D03C0BA2C01C023
S11350F0B52C34FF0DC0FE01EA0DF11D8081803313
S113510011F4397E09C032FF06C0B394B39404C0CD
S1135110832F867809F0B39433FD13C030FF06C0A3
S11351205A2CB31418F4530C5B18B32CB31468F44E
S1135130B70180E290E03C870E946C2BB3943C85DD
S1135140F5CFB31410F43B1801C0312C34FF12C056
S1135150B70180E390E03C870E946C2B3C8532FFD2
S113516017C031FD03C088E790E002C088E590E0F5
S1135170B7010CC0832F867859F031FF02C08BE24F
S113518001C080E237FD8DE2B70190E00E946C2BF4
S1135190A51438F4B70180E390E00E946C2B5A9474
S11351A0F7CFAA94F401EA0DF11D8081B70190E0D4
S11351B00E946C2BA110F5CF332009F451CEB70116
S11351C080E290E00E946C2B3A94F6CFF70186813E
S11351D0978102C08FEF9FEF2C96E2E10C941E2C76
S11351E04F925F926F927F929F92AF92BF92CF92B3
S11351F0DF92EF92FF920F931F93CF93DF93CDB77C
S1135200DEB729970FB6F894DEBF0FBECDBF6A0193
S1135210122FB02E2BE3201720F0FF24F394F00E6E
S113522002C0BCE3FB2E0F2D27E0AE014F5F5F4FA2
S11352300E947E2AAC018981982F9970913031F0B7
S1135240E1FC06C0E0FE06C090E205C09DE203C09A
S11352509BE201C090E0EE2DE07183FF3CC0911110
S113526002C083E001C084E0811718F4212F281BB9
S113527001C020E0E1110BC0F601822F30E2882347
S113528019F031938150FBCFC20ED11C20E0992339
S113529029F0D6019C93F60131966F01C60103965D
S11352A0E2FE0AC03EE4D6013C9341E411964C93DD
S11352B0119712963C9306C03EE6F601308341E610
S11352C041833283FC01322F40E2332309F442C08C
S11352D041933150FACF82FF44C0911102C083E060
S11352E001C084E0811718F4212F281B01C020E09D
S11352F0E1110BC0F601822F30E2882319F03193BB
S11353008150FBCFC20ED11C20E0992329F0D60195
S11353109C93F60131966F01C6010396E2FE0BC021
S113532039E4D6013C933EE411963C93119736E45C
S113533012963C9307C039E6F60130833EE631838A
S113534036E63283FC01322F40E2332319F04193D5
S11353503150FBCFFC01E20FF11D10828EEF9FEF65
S1135360B7C0F1E0911101C0F0E06F2F70E01416A6
S1135370150624F49A012F5F3F4F02C021E030E06C
S1135380260F371FBB2029F06B2D70E06F5F7F4F16
S113539002C060E070E0260F371F612F70E026170F
S11353A037071CF4121B212F01C020E03E2D387159
S11353B059F4D601322F60E2332319F06D93315042
S11353C0FBCFC20ED11C20E0FF2331F0D6019C9309
S11353D0B6016F5F7F4F6B01E1110BC0F601922F95
S11353E030E3992319F031939150FBCFC20ED11CB5
S11353F020E09F2D940F3A81782F7071A72E84FF9F
S113540003C0313309F49150191624F4993018F07B
S113541098E001C091E0E42F852F57FF02C0E0E03F
S113542080E06E2F782FE0E0F0E0AEE29A2E3A01B1
S1135430691A71082A01461A570A0B2D10E01195B2
S1135440019511096F3F8FEF780729F4D6019C92DB
S1135450C60101966C014617570784F06616770655
S11354606CF47F01E40CF51CA1E0B0E0AC0FBD1FAF
S1135470EA0EFB1ED7011196BC9002C090E3B92E30
S1135480615071093196C60101967C01601771075C
S113549024F0D601BC926C01D5CF6417750741F492
S11354A0363320F4353321F4A11002C081E3B82E41
S11354B0F601B082F701822F90E2882319F09193CC
S11354C08150FBCFF701E20FF11D108280E090E0E4
S11354D029960FB6F894DEBF0FBECDBFDF91CF91F2
S11354E01F910F91FF90EF90DF90CF90BF90AF90FE
S11354F09F907F906F905F904F900895283008F0B0
S113550027E03327DA01990F311D87FD916000965A
S11355106105710539F432602E5F3D9330E32A95BD
S1135520E1F708959F3F30F080387105610509F077
S11355303C5F3C5F3D93913008F08068911DDF93A0
S1135540CF931F930F93FF92EF92192F987F969505
S1135550E92F96959695E90FFF27E852FF4F992773
S11355603327EE24FF24A701E7010590089407944C
S113557028F4360FE71EF81E491F511D660F771FCA
S1135580881F991F0694A1F70590079428F4E70E45
S1135590F81E491F561FC11D770F881F991F661FCC
S11355A00694A1F70590079428F4F80E491F561F96
S11355B0C71FD11D880F991F661F771F0694A1F777
S11355C00590079420F4490F561FC71FD81F990F41
S11355D0661F771F881F0694A9F78491109517708A
S11355E041F0D695C79557954795F794E7941A9542
S11355F0C1F7EEE7F0E06894159015913591659147
S1135600959105907FE27395E118F10A430B560BCF
S1135610C90BD009C0F7E10CF11E431F561FC91F67
S1135620D01D7EF4703311F48A95E6CFE8940150CE
S113563030F0080F0AF40027021708F4202F2395EE
S1135640022F7A3328F079E37D932A95E9F710C085
S11356507D932A9589F606949795679537951795BE
S11356601794E118F10A430B560BC90BD00998F0B3
S113567023957E9173957A3308F070E37C9320131D
S1135680B8F77E9170617D9330F0839571E37D93DB
S113569070E32A95E1F71124EF90FF900F911F9189
S11356A0CF91DF91992787FD90950895FC0105908E
S11356B0615070400110D8F7809590958E0F9F1F10
S11356C00895FC016150704001900110D8F7809555
S11356D090958E0F9F1F08950F931F93CF93DF9381
S11356E0FB01238121FD03C08FEF9FEF28C022FF20
S11356F016C046815781248135814217530744F4EB
S1135700A081B1819D012F5F3F4F318320838C9312
S1135710268137812F5F3F4F3783268310C0EB01EB
S1135720092F182F0084F185E02D0995892BE1F6C6
S11357308E819F8101969F838E83812F902FDF918D
S1135740CF911F910F910895FA01AA27283051F1A2
S1135750203181F1E8946F936E7F6E5F7F4F8F4F9E
S11357609F4FAF4FB1E03ED0B4E03CD0670F781FFD
S1135770891F9A1FA11D680F791F8A1F911DA11DE2
S11357806A0F711D811D911DA11D20D009F468941B
S11357903F912AE0269F11243019305D3193DEF6C3
S11357A0CF010895462F4770405D4193B3E00FD079
S11357B0C9F7F6CF462F4F70405D4A3318F0495D64
S11357C031FD4052419302D0A9F7EACFB4E0A69547
S11357D09795879577956795BA95C9F70097610569
S11357E0710508959B01AC010A2E069457954795BF
S11357F037952795BA95C9F7620F731F841F951FB4
S1135800A01D08952F923F924F925F926F927F92C4
S11358108F929F92AF92BF92CF92DF92EF92FF92BC
S11358200F931F93CF93DF93CDB7DEB7CA1BDB0B68
S11358300FB6F894DEBF0FBECDBF09942A8839880D
S113584048885F846E847D848C849B84AA84B98414
S1135850C884DF80EE80FD800C811B81AA81B98120
S1135860CE0FD11D0FB6F894DEBF0FBECDBFED0134
S10958700895F894FFCF37
S1135876AD150601A6140840000000802B02514312
S11358865A454B20436F6D70616E696F6E20312EE1
S1135896302850504D290A00327C8900EDD96877AA
S11358A6750000590000000000000000D69FDCA827
S11358B61817AA90437327F6B968EDF4DED409FEE7
S11358C6E61C1C84DDE80B9929274EC484000F03CB
S11358D60000000000A7B777BF76941500F37C009C
S11358E60026149E988F0000006A31168F8C059648
S11358F600E7B73F362F000000000000AF669ED0D9
S1135906385D8A6C20B95422AE7CED044C80387420
S113591686EDCBFA57CBDC19E22E1DDF5506E5CB17
S113592601C36DA8B52F48837F00679AB2C80000EB
S113593600000000000000000000BD0000000000A0
S1135946000000000000000000000000000000004D
S1135956000000000000000000000000000000003D
S1135966000000000000000000000000000000002D
S11359760000000000000000000000000000A36911
S1135986972396B300000000005A68555F82B85109
S10B599608CC31AA2C532E00A9
S9030000FC
